{
  "contractName": "Crowdfunding",
  "abi": [
    {
      "inputs": [
        {
          "internalType": "uint256",
          "name": "lida",
          "type": "uint256"
        },
        {
          "internalType": "uint256",
          "name": "amounts",
          "type": "uint256"
        },
        {
          "internalType": "string",
          "name": "purposea",
          "type": "string"
        },
        {
          "internalType": "string",
          "name": "desc",
          "type": "string"
        },
        {
          "internalType": "string",
          "name": "filenamea",
          "type": "string"
        },
        {
          "internalType": "string",
          "name": "date_entrya",
          "type": "string"
        },
        {
          "internalType": "string",
          "name": "need_datea",
          "type": "string"
        },
        {
          "internalType": "uint256",
          "name": "policyida",
          "type": "uint256"
        },
        {
          "internalType": "string",
          "name": "typea",
          "type": "string"
        }
      ],
      "name": "addTransaction",
      "outputs": [],
      "stateMutability": "nonpayable",
      "type": "function"
    },
    {
      "inputs": [
        {
          "internalType": "uint256",
          "name": "loginidb",
          "type": "uint256"
        },
        {
          "internalType": "uint256",
          "name": "policyidb",
          "type": "uint256"
        },
        {
          "internalType": "string",
          "name": "addressb",
          "type": "string"
        },
        {
          "internalType": "uint256",
          "name": "amountb",
          "type": "uint256"
        },
        {
          "internalType": "string",
          "name": "dateb",
          "type": "string"
        },
        {
          "internalType": "string",
          "name": "typea",
          "type": "string"
        }
      ],
      "name": "addDonation",
      "outputs": [],
      "stateMutability": "nonpayable",
      "type": "function"
    }
  ],
  "bytecode": "0x608060405234801561001057600080fd5b506107b8806100206000396000f3fe608060405234801561001057600080fd5b50600436106100365760003560e01c8063195b12131461003b578063f579621714610057575b600080fd5b610055600480360381019061005091906104ce565b610073565b005b610071600480360381019061006c9190610640565b6101be565b005b60006040518061012001604052808b81526020018a815260200186815260200185815260200189815260200188815260200187815260200184815260200183815250905060008190806001815401808255809150506001900390600052602060002090600902016000909190919091506000820151816000015560208201518160010155604082015181600201908051906020019061011392919061029b565b50606082015181600301908051906020019061013092919061029b565b50608082015181600401908051906020019061014d92919061029b565b5060a082015181600501908051906020019061016a92919061029b565b5060c082015181600601908051906020019061018792919061029b565b5060e082015181600701556101008201518160080190805190602001906101af92919061029b565b50505050505050505050505050565b60006040518060c0016040528088815260200187815260200186815260200185815260200184815260200183815250905060018190806001815401808255809150506001900390600052602060002090600602016000909190919091506000820151816000015560208201518160010155604082015181600201908051906020019061024b92919061029b565b5060608201518160030155608082015181600401908051906020019061027292919061029b565b5060a082015181600501908051906020019061028f92919061029b565b50505050505050505050565b8280546102a790610750565b90600052602060002090601f0160209004810192826102c95760008555610310565b82601f106102e257805160ff1916838001178555610310565b82800160010185558215610310579182015b8281111561030f5782518255916020019190600101906102f4565b5b50905061031d9190610321565b5090565b5b8082111561033a576000816000905550600101610322565b5090565b6000604051905090565b600080fd5b600080fd5b6000819050919050565b61036581610352565b811461037057600080fd5b50565b6000813590506103828161035c565b92915050565b600080fd5b600080fd5b6000601f19601f8301169050919050565b7f4e487b7100000000000000000000000000000000000000000000000000000000600052604160045260246000fd5b6103db82610392565b810181811067ffffffffffffffff821117156103fa576103f96103a3565b5b80604052505050565b600061040d61033e565b905061041982826103d2565b919050565b600067ffffffffffffffff821115610439576104386103a3565b5b61044282610392565b9050602081019050919050565b82818337600083830152505050565b600061047161046c8461041e565b610403565b90508281526020810184848401111561048d5761048c61038d565b5b61049884828561044f565b509392505050565b600082601f8301126104b5576104b4610388565b5b81356104c584826020860161045e565b91505092915050565b60008060008060008060008060006101208a8c0312156104f1576104f0610348565b5b60006104ff8c828d01610373565b99505060206105108c828d01610373565b98505060408a013567ffffffffffffffff8111156105315761053061034d565b5b61053d8c828d016104a0565b97505060608a013567ffffffffffffffff81111561055e5761055d61034d565b5b61056a8c828d016104a0565b96505060808a013567ffffffffffffffff81111561058b5761058a61034d565b5b6105978c828d016104a0565b95505060a08a013567ffffffffffffffff8111156105b8576105b761034d565b5b6105c48c828d016104a0565b94505060c08a013567ffffffffffffffff8111156105e5576105e461034d565b5b6105f18c828d016104a0565b93505060e06106028c828d01610373565b9250506101008a013567ffffffffffffffff8111156106245761062361034d565b5b6106308c828d016104a0565b9150509295985092959850929598565b60008060008060008060c0878903121561065d5761065c610348565b5b600061066b89828a01610373565b965050602061067c89828a01610373565b955050604087013567ffffffffffffffff81111561069d5761069c61034d565b5b6106a989828a016104a0565b94505060606106ba89828a01610373565b935050608087013567ffffffffffffffff8111156106db576106da61034d565b5b6106e789828a016104a0565b92505060a087013567ffffffffffffffff8111156107085761070761034d565b5b61071489828a016104a0565b9150509295509295509295565b7f4e487b7100000000000000000000000000000000000000000000000000000000600052602260045260246000fd5b6000600282049050600182168061076857607f821691505b6020821081141561077c5761077b610721565b5b5091905056fea264697066735822122029c6445092e78dddafe23b740c4d9b8d2415c020254234084c1d340e01415fca64736f6c634300080c0033",
  "immutableReferences": {},
  "source": "pragma solidity ^0.8.12;\n\ncontract Crowdfunding{\n\nstruct transaction{\n             uint lid;\n\t     uint amount;\n\t     string purpose;\n\t     string description;\n\t     string filename;\n\t     string date_entry;\n\t     string need_date;\n\t     uint policyid;\n\t     string types;\n             \n  }\n\nstruct donation{\n\t     uint loginid;\n\t     uint policyid;\n\t     string addresss;\n\t     uint amounts;\n\t     string date;\n\t     string types;\n}\n\n\ntransaction [] alltrans;\n\nfunction addTransaction(uint lida,uint amounts,string memory purposea,string memory desc,string memory filenamea,string memory date_entrya,string memory need_datea,uint policyida,string memory typea) \npublic{\n\ttransaction memory e = transaction(lida,amounts,date_entrya,need_datea,purposea,desc,filenamea,policyida,typea);\n\talltrans.push(e);\n}\n\ndonation [] alldon;\n\nfunction addDonation(uint loginidb,uint policyidb,string memory addressb,uint amountb,string memory dateb,string memory typea)\npublic{\n\tdonation memory c=donation(loginidb,policyidb,addressb,amountb,dateb,typea);\n\talldon.push(c);\n\n} \n\n\n}\n",
  "sourcePath": "C:\\22-23\\crowd funding-blossom\\crwdbc\\contracts\\Crowdfunding.sol",
  "compiler": {
    "name": "solc",
    "version": "0.8.12+commit.f00d7308.Emscripten.clang"
  },
  "schemaVersion": "3.4.16",
  "updatedAt": "2023-11-15T08:48:47.675Z",
  "networkType": "ethereum",
  "devdoc": {
    "kind": "dev",
    "methods": {},
    "version": 1
  },
  "userdoc": {
    "kind": "user",
    "methods": {},
    "version": 1
  }
}