{
  "contractName": "echowheelex",
  "abi": [
    {
      "inputs": [
        {
          "internalType": "string",
          "name": "lida",
          "type": "string"
        },
        {
          "internalType": "string",
          "name": "vida",
          "type": "string"
        },
        {
          "internalType": "string",
          "name": "date",
          "type": "string"
        },
        {
          "internalType": "string",
          "name": "typea",
          "type": "string"
        },
        {
          "internalType": "uint256",
          "name": "reqida",
          "type": "uint256"
        },
        {
          "internalType": "uint256",
          "name": "scrapdealerida",
          "type": "uint256"
        }
      ],
      "name": "addrequest",
      "outputs": [],
      "stateMutability": "nonpayable",
      "type": "function"
    },
    {
      "inputs": [
        {
          "internalType": "uint256",
          "name": "cid",
          "type": "uint256"
        },
        {
          "internalType": "string",
          "name": "vida",
          "type": "string"
        },
        {
          "internalType": "string",
          "name": "certificate",
          "type": "string"
        },
        {
          "internalType": "string",
          "name": "typea",
          "type": "string"
        }
      ],
      "name": "addcertificates",
      "outputs": [],
      "stateMutability": "nonpayable",
      "type": "function"
    },
    {
      "inputs": [
        {
          "internalType": "uint256",
          "name": "plida",
          "type": "uint256"
        },
        {
          "internalType": "uint256",
          "name": "vida",
          "type": "uint256"
        },
        {
          "internalType": "string",
          "name": "typea",
          "type": "string"
        },
        {
          "internalType": "string",
          "name": "suspiciousactivitya",
          "type": "string"
        },
        {
          "internalType": "string",
          "name": "sdatea",
          "type": "string"
        },
        {
          "internalType": "string",
          "name": "splacea",
          "type": "string"
        }
      ],
      "name": "addsuspicious",
      "outputs": [],
      "stateMutability": "nonpayable",
      "type": "function"
    }
  ],
  "bytecode": "0x608060405234801561001057600080fd5b506108b4806100206000396000f3fe608060405234801561001057600080fd5b50600436106100415760003560e01c80632d5cb4e1146100465780639c3970a614610062578063cfba72e21461007e575b600080fd5b610060600480360381019061005b9190610568565b61009a565b005b61007c60048036038101906100779190610665565b61018a565b005b61009860048036038101906100939190610720565b610245565b005b60006040518060c0016040528088815260200187815260200186815260200185815260200184815260200183815250905060008190806001815401808255809150506001900390600052602060002090600602016000909190919091506000820151816000019080519060200190610113929190610335565b506020820151816001019080519060200190610130929190610335565b50604082015181600201908051906020019061014d929190610335565b50606082015181600301908051906020019061016a929190610335565b506080820151816004015560a08201518160050155505050505050505050565b600060405180608001604052808681526020018581526020018481526020018381525090506001819080600181540180825580915050600190039060005260206000209060040201600090919091909150600082015181600001556020820151816001019080519060200190610201929190610335565b50604082015181600201908051906020019061021e929190610335565b50606082015181600301908051906020019061023b929190610335565b5050505050505050565b60006040518060c001604052808881526020018781526020018681526020018581526020018481526020018381525090506002819080600181540180825580915050600190039060005260206000209060060201600090919091909150600082015181600001556020820151816001015560408201518160020190805190602001906102d2929190610335565b5060608201518160030190805190602001906102ef929190610335565b50608082015181600401908051906020019061030c929190610335565b5060a0820151816005019080519060200190610329929190610335565b50505050505050505050565b8280546103419061084c565b90600052602060002090601f01602090048101928261036357600085556103aa565b82601f1061037c57805160ff19168380011785556103aa565b828001600101855582156103aa579182015b828111156103a957825182559160200191906001019061038e565b5b5090506103b791906103bb565b5090565b5b808211156103d45760008160009055506001016103bc565b5090565b6000604051905090565b600080fd5b600080fd5b600080fd5b600080fd5b6000601f19601f8301169050919050565b7f4e487b7100000000000000000000000000000000000000000000000000000000600052604160045260246000fd5b61043f826103f6565b810181811067ffffffffffffffff8211171561045e5761045d610407565b5b80604052505050565b60006104716103d8565b905061047d8282610436565b919050565b600067ffffffffffffffff82111561049d5761049c610407565b5b6104a6826103f6565b9050602081019050919050565b82818337600083830152505050565b60006104d56104d084610482565b610467565b9050828152602081018484840111156104f1576104f06103f1565b5b6104fc8482856104b3565b509392505050565b600082601f830112610519576105186103ec565b5b81356105298482602086016104c2565b91505092915050565b6000819050919050565b61054581610532565b811461055057600080fd5b50565b6000813590506105628161053c565b92915050565b60008060008060008060c08789031215610585576105846103e2565b5b600087013567ffffffffffffffff8111156105a3576105a26103e7565b5b6105af89828a01610504565b965050602087013567ffffffffffffffff8111156105d0576105cf6103e7565b5b6105dc89828a01610504565b955050604087013567ffffffffffffffff8111156105fd576105fc6103e7565b5b61060989828a01610504565b945050606087013567ffffffffffffffff81111561062a576106296103e7565b5b61063689828a01610504565b935050608061064789828a01610553565b92505060a061065889828a01610553565b9150509295509295509295565b6000806000806080858703121561067f5761067e6103e2565b5b600061068d87828801610553565b945050602085013567ffffffffffffffff8111156106ae576106ad6103e7565b5b6106ba87828801610504565b935050604085013567ffffffffffffffff8111156106db576106da6103e7565b5b6106e787828801610504565b925050606085013567ffffffffffffffff811115610708576107076103e7565b5b61071487828801610504565b91505092959194509250565b60008060008060008060c0878903121561073d5761073c6103e2565b5b600061074b89828a01610553565b965050602061075c89828a01610553565b955050604087013567ffffffffffffffff81111561077d5761077c6103e7565b5b61078989828a01610504565b945050606087013567ffffffffffffffff8111156107aa576107a96103e7565b5b6107b689828a01610504565b935050608087013567ffffffffffffffff8111156107d7576107d66103e7565b5b6107e389828a01610504565b92505060a087013567ffffffffffffffff811115610804576108036103e7565b5b61081089828a01610504565b9150509295509295509295565b7f4e487b7100000000000000000000000000000000000000000000000000000000600052602260045260246000fd5b6000600282049050600182168061086457607f821691505b602082108114156108785761087761081d565b5b5091905056fea26469706673582212209a1bea22cdff6038e2da265e0743e7a3f00b792991db445b9da3275f81ef61c364736f6c634300080c0033",
  "immutableReferences": {},
  "source": "// SPDX-License-Identifier: MIT\npragma solidity >=0.4.22 <0.9.0;\n\n// Creating a Smart Contract\ncontract echowheelex{\n\nstruct request{\n\t// State variables\n\tstring lida;\n\tstring  vida;\n\tstring date;\n\tstring typea;\n        uint reqid;\n\tuint scrapdealerid;\n\n}\n\nrequest []rqst;\n\n\n// Function to add\nfunction addrequest( string memory lida,string memory vida,string memory date,string memory typea,uint reqida,uint scrapdealerida) public{\n\trequest memory e =request(lida,vida,date,typea,reqida,scrapdealerida);\n\trqst.push(e);\n}\n\nstruct certificates{\n\t// State variables\n\tuint cid;\n\tstring vida;\n\tstring certificate;\n\tstring typea;\n}\n\ncertificates []crtfct;\n\n\n// Function to add\nfunction addcertificates(uint cid, string memory vida,string memory certificate,string memory typea) public{\n\tcertificates memory e =certificates(cid, vida, certificate,typea);\n\tcrtfct.push(e);\n}\n\n\n\n// Function to get details of prodcut\n\n\nstruct suspicious{\n             uint plid;\n\t     uint vida;\n\t     string typea;\n\t     string suspiciousactivitya;\n             string sdatea;\n\t     string splacea;\n           \n            \n}\nsuspicious[] allsus;\nfunction addsuspicious(uint plida,uint vida, string memory typea,string memory suspiciousactivitya,string memory sdatea,string memory splacea) public\n{\n\tsuspicious memory e = suspicious(plida,vida,typea,suspiciousactivitya,sdatea,splacea);\n\tallsus.push(e);\n}\n\n\n\n\n}\n",
  "sourcePath": "C:\\ProjectFinal\\crwdbc\\contracts\\echowheelex.sol",
  "compiler": {
    "name": "solc",
    "version": "0.8.12+commit.f00d7308.Emscripten.clang"
  },
  "schemaVersion": "3.4.16",
  "updatedAt": "2025-01-20T06:36:51.564Z",
  "networkType": "ethereum",
  "devdoc": {
    "kind": "dev",
    "methods": {},
    "version": 1
  },
  "userdoc": {
    "kind": "user",
    "methods": {},
    "version": 1
  }
}